{
  "contractName": "UserTasks",
  "abi": [
    {
      "anonymous": false,
      "inputs": [
        {
          "indexed": false,
          "internalType": "uint256",
          "name": "taskId",
          "type": "uint256"
        },
        {
          "indexed": false,
          "internalType": "string",
          "name": "name",
          "type": "string"
        },
        {
          "indexed": false,
          "internalType": "address",
          "name": "owner",
          "type": "address"
        }
      ],
      "name": "TaskAdded",
      "type": "event"
    },
    {
      "anonymous": false,
      "inputs": [
        {
          "indexed": false,
          "internalType": "uint256",
          "name": "taskId",
          "type": "uint256"
        },
        {
          "indexed": false,
          "internalType": "address",
          "name": "owner",
          "type": "address"
        }
      ],
      "name": "TaskDeleted",
      "type": "event"
    },
    {
      "anonymous": false,
      "inputs": [
        {
          "indexed": false,
          "internalType": "uint256",
          "name": "taskId",
          "type": "uint256"
        },
        {
          "indexed": false,
          "internalType": "string",
          "name": "name",
          "type": "string"
        },
        {
          "indexed": false,
          "internalType": "string",
          "name": "hour",
          "type": "string"
        },
        {
          "indexed": false,
          "internalType": "string",
          "name": "day",
          "type": "string"
        },
        {
          "indexed": false,
          "internalType": "bool",
          "name": "status",
          "type": "bool"
        },
        {
          "indexed": false,
          "internalType": "address",
          "name": "owner",
          "type": "address"
        }
      ],
      "name": "TaskUpdated",
      "type": "event"
    },
    {
      "anonymous": false,
      "inputs": [
        {
          "indexed": false,
          "internalType": "uint256",
          "name": "taskId",
          "type": "uint256"
        },
        {
          "indexed": false,
          "internalType": "bool",
          "name": "status",
          "type": "bool"
        },
        {
          "indexed": false,
          "internalType": "address",
          "name": "owner",
          "type": "address"
        }
      ],
      "name": "TaskUpdatedStatus",
      "type": "event"
    },
    {
      "anonymous": false,
      "inputs": [
        {
          "indexed": false,
          "internalType": "string",
          "name": "userName",
          "type": "string"
        },
        {
          "indexed": false,
          "internalType": "address",
          "name": "userAddress",
          "type": "address"
        }
      ],
      "name": "UserRegistered",
      "type": "event"
    },
    {
      "inputs": [
        {
          "internalType": "address",
          "name": "",
          "type": "address"
        }
      ],
      "name": "isUserRegistered",
      "outputs": [
        {
          "internalType": "bool",
          "name": "",
          "type": "bool"
        }
      ],
      "stateMutability": "view",
      "type": "function",
      "constant": true
    },
    {
      "inputs": [
        {
          "internalType": "uint256",
          "name": "",
          "type": "uint256"
        }
      ],
      "name": "tasks",
      "outputs": [
        {
          "internalType": "uint256",
          "name": "id",
          "type": "uint256"
        },
        {
          "internalType": "string",
          "name": "name",
          "type": "string"
        },
        {
          "internalType": "string",
          "name": "hour",
          "type": "string"
        },
        {
          "internalType": "bool",
          "name": "status",
          "type": "bool"
        },
        {
          "internalType": "string",
          "name": "day",
          "type": "string"
        },
        {
          "internalType": "address",
          "name": "owner",
          "type": "address"
        }
      ],
      "stateMutability": "view",
      "type": "function",
      "constant": true
    },
    {
      "inputs": [
        {
          "internalType": "address",
          "name": "",
          "type": "address"
        }
      ],
      "name": "users",
      "outputs": [
        {
          "internalType": "string",
          "name": "userName",
          "type": "string"
        },
        {
          "internalType": "address",
          "name": "userAddress",
          "type": "address"
        }
      ],
      "stateMutability": "view",
      "type": "function",
      "constant": true
    },
    {
      "inputs": [
        {
          "internalType": "uint256",
          "name": "countValue",
          "type": "uint256"
        }
      ],
      "name": "increment",
      "outputs": [],
      "stateMutability": "nonpayable",
      "type": "function"
    },
    {
      "inputs": [],
      "name": "count",
      "outputs": [
        {
          "internalType": "uint256",
          "name": "",
          "type": "uint256"
        }
      ],
      "stateMutability": "view",
      "type": "function",
      "constant": true
    },
    {
      "inputs": [
        {
          "internalType": "string",
          "name": "userName",
          "type": "string"
        },
        {
          "internalType": "address",
          "name": "userAddress",
          "type": "address"
        }
      ],
      "name": "registerUser",
      "outputs": [],
      "stateMutability": "nonpayable",
      "type": "function"
    },
    {
      "inputs": [
        {
          "internalType": "string",
          "name": "name",
          "type": "string"
        },
        {
          "internalType": "string",
          "name": "hour",
          "type": "string"
        },
        {
          "internalType": "string",
          "name": "day",
          "type": "string"
        }
      ],
      "name": "addTask",
      "outputs": [],
      "stateMutability": "nonpayable",
      "type": "function"
    },
    {
      "inputs": [
        {
          "internalType": "uint256",
          "name": "taskId",
          "type": "uint256"
        },
        {
          "internalType": "string",
          "name": "newName",
          "type": "string"
        },
        {
          "internalType": "string",
          "name": "newHour",
          "type": "string"
        },
        {
          "internalType": "string",
          "name": "newDay",
          "type": "string"
        }
      ],
      "name": "editTask",
      "outputs": [],
      "stateMutability": "nonpayable",
      "type": "function"
    },
    {
      "inputs": [
        {
          "internalType": "address",
          "name": "userAddress",
          "type": "address"
        }
      ],
      "name": "getUserTasks",
      "outputs": [
        {
          "internalType": "uint256[]",
          "name": "",
          "type": "uint256[]"
        }
      ],
      "stateMutability": "view",
      "type": "function",
      "constant": true
    },
    {
      "inputs": [
        {
          "internalType": "uint256",
          "name": "taskId",
          "type": "uint256"
        },
        {
          "internalType": "bool",
          "name": "status",
          "type": "bool"
        }
      ],
      "name": "updateTaskStatus",
      "outputs": [],
      "stateMutability": "nonpayable",
      "type": "function"
    },
    {
      "inputs": [
        {
          "internalType": "uint256",
          "name": "taskId",
          "type": "uint256"
        }
      ],
      "name": "deleteTask",
      "outputs": [],
      "stateMutability": "nonpayable",
      "type": "function"
    },
    {
      "inputs": [
        {
          "internalType": "uint256",
          "name": "taskId",
          "type": "uint256"
        }
      ],
      "name": "getTask",
      "outputs": [
        {
          "components": [
            {
              "internalType": "uint256",
              "name": "id",
              "type": "uint256"
            },
            {
              "internalType": "string",
              "name": "name",
              "type": "string"
            },
            {
              "internalType": "string",
              "name": "hour",
              "type": "string"
            },
            {
              "internalType": "bool",
              "name": "status",
              "type": "bool"
            },
            {
              "internalType": "string",
              "name": "day",
              "type": "string"
            },
            {
              "internalType": "address",
              "name": "owner",
              "type": "address"
            }
          ],
          "internalType": "struct UserTasks.Task",
          "name": "",
          "type": "tuple"
        }
      ],
      "stateMutability": "view",
      "type": "function",
      "constant": true
    },
    {
      "inputs": [
        {
          "internalType": "address",
          "name": "userAddress",
          "type": "address"
        }
      ],
      "name": "fetchUserTasks",
      "outputs": [
        {
          "components": [
            {
              "internalType": "uint256",
              "name": "id",
              "type": "uint256"
            },
            {
              "internalType": "string",
              "name": "name",
              "type": "string"
            },
            {
              "internalType": "string",
              "name": "hour",
              "type": "string"
            },
            {
              "internalType": "bool",
              "name": "status",
              "type": "bool"
            },
            {
              "internalType": "string",
              "name": "day",
              "type": "string"
            },
            {
              "internalType": "address",
              "name": "owner",
              "type": "address"
            }
          ],
          "internalType": "struct UserTasks.Task[]",
          "name": "",
          "type": "tuple[]"
        }
      ],
      "stateMutability": "view",
      "type": "function",
      "constant": true
    },
    {
      "inputs": [
        {
          "internalType": "uint256",
          "name": "taskId",
          "type": "uint256"
        },
        {
          "internalType": "address",
          "name": "newOwner",
          "type": "address"
        }
      ],
      "name": "assignTask",
      "outputs": [],
      "stateMutability": "nonpayable",
      "type": "function"
    }
  ],
  "bytecode": "0x608060405234801561001057600080fd5b50612c59806100206000396000f3fe608060405234801561001057600080fd5b5060043610610107576000357c010000000000000000000000000000000000000000000000000000000090048063560f3192116100a95780638b3f236d116100835780638b3f236d146102625780638d9776721461027e57806395d57660146102b3578063a87430ba146102e357610107565b8063560f3192146101fa5780637cf5dab014610216578063836af5d11461023257610107565b80631d65e77e116100e55780631d65e77e146101765780632431e100146101a6578063517c0734146101c25780635293ee81146101de57610107565b806306661abd1461010c5780630e54b8721461012a578063163f752214610146575b600080fd5b610114610314565b6040516101219190611a2b565b60405180910390f35b610144600480360381019061013f9190611bfe565b61031d565b005b610160600480360381019061015b9190611c5a565b61043f565b60405161016d9190611ca2565b60405180910390f35b610190600480360381019061018b9190611ce9565b61045f565b60405161019d9190611e59565b60405180910390f35b6101c060048036038101906101bb9190611e7b565b6106b3565b005b6101dc60048036038101906101d79190611f36565b6107e1565b005b6101f860048036038101906101f39190611fdd565b610a58565b005b610214600480360381019061020f9190611ce9565b610e13565b005b610230600480360381019061022b9190611ce9565b610ffe565b005b61024c60048036038101906102479190611c5a565b611019565b6040516102599190612176565b60405180910390f35b61027c600480360381019061027791906121c4565b61143c565b005b61029860048036038101906102939190611ce9565b6114a5565b6040516102aa9695949392919061225d565b60405180910390f35b6102cd60048036038101906102c89190611c5a565b6116b6565b6040516102da9190612382565b60405180910390f35b6102fd60048036038101906102f89190611c5a565b6117dc565b60405161030b9291906123a4565b60405180910390f35b60008054905090565b600460008273ffffffffffffffffffffffffffffffffffffffff1673ffffffffffffffffffffffffffffffffffffffff16815260200190815260200160002060009054906101000a900460ff16156103aa576040517f08c379a00000000000000000000000000000000000000000000000000000000081526004016103a190612420565b60405180910390fd5b6001600460008373ffffffffffffffffffffffffffffffffffffffff1673ffffffffffffffffffffffffffffffffffffffff16815260200190815260200160002060006101000a81548160ff0219169083151502179055507f7f605d0ff47d2a070e456b69ce2a36041788910b64443c7f4c6d307993cade2c82826040516104339291906123a4565b60405180910390a15050565b60046020528060005260406000206000915054906101000a900460ff1681565b610467611967565b610470826118a8565b6040518060c0016040529081600082015481526020016001820180546104959061246f565b80601f01602080910402602001604051908101604052809291908181526020018280546104c19061246f565b801561050e5780601f106104e35761010080835404028352916020019161050e565b820191906000526020600020905b8154815290600101906020018083116104f157829003601f168201915b505050505081526020016002820180546105279061246f565b80601f01602080910402602001604051908101604052809291908181526020018280546105539061246f565b80156105a05780601f10610575576101008083540402835291602001916105a0565b820191906000526020600020905b81548152906001019060200180831161058357829003601f168201915b505050505081526020016003820160009054906101000a900460ff161515151581526020016004820180546105d49061246f565b80601f01602080910402602001604051908101604052809291908181526020018280546106009061246f565b801561064d5780601f106106225761010080835404028352916020019161064d565b820191906000526020600020905b81548152906001019060200180831161063057829003601f168201915b505050505081526020016005820160009054906101000a900473ffffffffffffffffffffffffffffffffffffffff1673ffffffffffffffffffffffffffffffffffffffff1673ffffffffffffffffffffffffffffffffffffffff16815250509050919050565b60006106be856118a8565b90503373ffffffffffffffffffffffffffffffffffffffff168160050160009054906101000a900473ffffffffffffffffffffffffffffffffffffffff1673ffffffffffffffffffffffffffffffffffffffff1614610752576040517f08c379a000000000000000000000000000000000000000000000000000000000815260040161074990612512565b60405180910390fd5b8381600101908161076391906126e4565b508281600201908161077591906126e4565b508181600401908161078791906126e4565b507f67c703d7fd859aeecc192ecd6714b6fd69b18bb1781ddf83db5ed364e5e6f54d858585858560030160009054906101000a900460ff16336040516107d2969594939291906127b6565b60405180910390a15050505050565b600460003373ffffffffffffffffffffffffffffffffffffffff1673ffffffffffffffffffffffffffffffffffffffff16815260200190815260200160002060009054906101000a900460ff1661086d576040517f08c379a000000000000000000000000000000000000000000000000000000000815260040161086490612878565b60405180910390fd5b600060016000815480929190610882906128c7565b91905055905060026040518060c001604052808381526020018681526020018581526020016000151581526020018481526020013373ffffffffffffffffffffffffffffffffffffffff16815250908060018154018082558091505060019003906000526020600020906006020160009091909190915060008201518160000155602082015181600101908161091891906126e4565b50604082015181600201908161092e91906126e4565b5060608201518160030160006101000a81548160ff021916908315150217905550608082015181600401908161096491906126e4565b5060a08201518160050160006101000a81548173ffffffffffffffffffffffffffffffffffffffff021916908373ffffffffffffffffffffffffffffffffffffffff1602179055505050600360003373ffffffffffffffffffffffffffffffffffffffff1673ffffffffffffffffffffffffffffffffffffffff1681526020019081526020016000206002018190806001815401808255809150506001900390600052602060002001600090919091909150557f02e076a310986b85f971dffa52a2e73b1e0de166a4a485a1d0bff408126f8d55818533604051610a4a9392919061290f565b60405180910390a150505050565b6002805490508210610a9f576040517f08c379a0000000000000000000000000000000000000000000000000000000008152600401610a9690612999565b60405180910390fd5b600460008273ffffffffffffffffffffffffffffffffffffffff1673ffffffffffffffffffffffffffffffffffffffff16815260200190815260200160002060009054906101000a900460ff16610b2b576040517f08c379a0000000000000000000000000000000000000000000000000000000008152600401610b2290612a05565b60405180910390fd5b600060028381548110610b4157610b40612a25565b5b906000526020600020906006020190503373ffffffffffffffffffffffffffffffffffffffff168160050160009054906101000a900473ffffffffffffffffffffffffffffffffffffffff1673ffffffffffffffffffffffffffffffffffffffff1614610be3576040517f08c379a0000000000000000000000000000000000000000000000000000000008152600401610bda90612aa0565b60405180910390fd5b60008160050160009054906101000a900473ffffffffffffffffffffffffffffffffffffffff169050828260050160006101000a81548173ffffffffffffffffffffffffffffffffffffffff021916908373ffffffffffffffffffffffffffffffffffffffff1602179055506000600360008373ffffffffffffffffffffffffffffffffffffffff1673ffffffffffffffffffffffffffffffffffffffff168152602001908152602001600020600201905060005b8180549050811015610d565785828281548110610cb857610cb7612a25565b5b906000526020600020015403610d43578160018380549050610cda9190612ac0565b81548110610ceb57610cea612a25565b5b9060005260206000200154828281548110610d0957610d08612a25565b5b906000526020600020018190555081805480610d2857610d27612af4565b5b60019003818190600052602060002001600090559055610d56565b8080610d4e906128c7565b915050610c98565b50600360008573ffffffffffffffffffffffffffffffffffffffff1673ffffffffffffffffffffffffffffffffffffffff1681526020019081526020016000206002018590806001815401808255809150506001900390600052602060002001600090919091909150557f812bdb6d055dcdcd401bc1c83dae61a0a2a6c4b1436f5c24473796ede50eb7d8858460030160009054906101000a900460ff1686604051610e0493929190612b23565b60405180910390a15050505050565b6000610e1e826118a8565b90506000600360003373ffffffffffffffffffffffffffffffffffffffff1673ffffffffffffffffffffffffffffffffffffffff168152602001908152602001600020600201905060005b8180549050811015610f275783828281548110610e8957610e88612a25565b5b906000526020600020015403610f14578160018380549050610eab9190612ac0565b81548110610ebc57610ebb612a25565b5b9060005260206000200154828281548110610eda57610ed9612a25565b5b906000526020600020018190555081805480610ef957610ef8612af4565b5b60019003818190600052602060002001600090559055610f27565b8080610f1f906128c7565b915050610e69565b5060028381548110610f3c57610f3b612a25565b5b9060005260206000209060060201600080820160009055600182016000610f6391906119b5565b600282016000610f7391906119b5565b6003820160006101000a81549060ff0219169055600482016000610f9791906119b5565b6005820160006101000a81549073ffffffffffffffffffffffffffffffffffffffff021916905550507f342ff6c61d8ac95b75821982d3bac415a2f2e4f121b1fccda188bd67d31324b78333604051610ff1929190612b5a565b60405180910390a1505050565b8060008082825461100f9190612b83565b9250508190555050565b6060600460008373ffffffffffffffffffffffffffffffffffffffff1673ffffffffffffffffffffffffffffffffffffffff16815260200190815260200160002060009054906101000a900460ff166110a7576040517f08c379a000000000000000000000000000000000000000000000000000000000815260040161109e90612878565b60405180910390fd5b6000600360008473ffffffffffffffffffffffffffffffffffffffff1673ffffffffffffffffffffffffffffffffffffffff16815260200190815260200160002060020180548060200260200160405190810160405280929190818152602001828054801561113557602002820191906000526020600020905b815481526020019060010190808311611121575b505050505090506000815167ffffffffffffffff81111561115957611158611a75565b5b60405190808252806020026020018201604052801561119257816020015b61117f611967565b8152602001906001900390816111775790505b50905060005b8251811015611431576111c48382815181106111b7576111b6612a25565b5b60200260200101516118a8565b6040518060c0016040529081600082015481526020016001820180546111e99061246f565b80601f01602080910402602001604051908101604052809291908181526020018280546112159061246f565b80156112625780601f1061123757610100808354040283529160200191611262565b820191906000526020600020905b81548152906001019060200180831161124557829003601f168201915b5050505050815260200160028201805461127b9061246f565b80601f01602080910402602001604051908101604052809291908181526020018280546112a79061246f565b80156112f45780601f106112c9576101008083540402835291602001916112f4565b820191906000526020600020905b8154815290600101906020018083116112d757829003601f168201915b505050505081526020016003820160009054906101000a900460ff161515151581526020016004820180546113289061246f565b80601f01602080910402602001604051908101604052809291908181526020018280546113549061246f565b80156113a15780601f10611376576101008083540402835291602001916113a1565b820191906000526020600020905b81548152906001019060200180831161138457829003601f168201915b505050505081526020016005820160009054906101000a900473ffffffffffffffffffffffffffffffffffffffff1673ffffffffffffffffffffffffffffffffffffffff1673ffffffffffffffffffffffffffffffffffffffff168152505082828151811061141357611412612a25565b5b60200260200101819052508080611429906128c7565b915050611198565b508092505050919050565b6000611447836118a8565b9050818160030160006101000a81548160ff0219169083151502179055507f812bdb6d055dcdcd401bc1c83dae61a0a2a6c4b1436f5c24473796ede50eb7d883833360405161149893929190612b23565b60405180910390a1505050565b600281815481106114b557600080fd5b90600052602060002090600602016000915090508060000154908060010180546114de9061246f565b80601f016020809104026020016040519081016040528092919081815260200182805461150a9061246f565b80156115575780601f1061152c57610100808354040283529160200191611557565b820191906000526020600020905b81548152906001019060200180831161153a57829003601f168201915b50505050509080600201805461156c9061246f565b80601f01602080910402602001604051908101604052809291908181526020018280546115989061246f565b80156115e55780601f106115ba576101008083540402835291602001916115e5565b820191906000526020600020905b8154815290600101906020018083116115c857829003601f168201915b5050505050908060030160009054906101000a900460ff169080600401805461160d9061246f565b80601f01602080910402602001604051908101604052809291908181526020018280546116399061246f565b80156116865780601f1061165b57610100808354040283529160200191611686565b820191906000526020600020905b81548152906001019060200180831161166957829003601f168201915b5050505050908060050160009054906101000a900473ffffffffffffffffffffffffffffffffffffffff16905086565b6060600460008373ffffffffffffffffffffffffffffffffffffffff1673ffffffffffffffffffffffffffffffffffffffff16815260200190815260200160002060009054906101000a900460ff16611744576040517f08c379a000000000000000000000000000000000000000000000000000000000815260040161173b90612878565b60405180910390fd5b600360008373ffffffffffffffffffffffffffffffffffffffff1673ffffffffffffffffffffffffffffffffffffffff1681526020019081526020016000206002018054806020026020016040519081016040528092919081815260200182805480156117d057602002820191906000526020600020905b8154815260200190600101908083116117bc575b50505050509050919050565b60036020528060005260406000206000915090508060000180546117ff9061246f565b80601f016020809104026020016040519081016040528092919081815260200182805461182b9061246f565b80156118785780601f1061184d57610100808354040283529160200191611878565b820191906000526020600020905b81548152906001019060200180831161185b57829003601f168201915b5050505050908060010160009054906101000a900473ffffffffffffffffffffffffffffffffffffffff16905082565b600080600090505b6002805490508110156119265782600282815481106118d2576118d1612a25565b5b9060005260206000209060060201600001540361191357600281815481106118fd576118fc612a25565b5b9060005260206000209060060201915050611962565b808061191e906128c7565b9150506118b0565b506040517f08c379a000000000000000000000000000000000000000000000000000000000815260040161195990612c03565b60405180910390fd5b919050565b6040518060c0016040528060008152602001606081526020016060815260200160001515815260200160608152602001600073ffffffffffffffffffffffffffffffffffffffff1681525090565b5080546119c19061246f565b6000825580601f106119d357506119f2565b601f0160209004906000526020600020908101906119f191906119f5565b5b50565b5b80821115611a0e5760008160009055506001016119f6565b5090565b6000819050919050565b611a2581611a12565b82525050565b6000602082019050611a406000830184611a1c565b92915050565b6000604051905090565b600080fd5b600080fd5b600080fd5b600080fd5b6000601f19601f8301169050919050565b7f4e487b7100000000000000000000000000000000000000000000000000000000600052604160045260246000fd5b611aad82611a64565b810181811067ffffffffffffffff82111715611acc57611acb611a75565b5b80604052505050565b6000611adf611a46565b9050611aeb8282611aa4565b919050565b600067ffffffffffffffff821115611b0b57611b0a611a75565b5b611b1482611a64565b9050602081019050919050565b82818337600083830152505050565b6000611b43611b3e84611af0565b611ad5565b905082815260208101848484011115611b5f57611b5e611a5f565b5b611b6a848285611b21565b509392505050565b600082601f830112611b8757611b86611a5a565b5b8135611b97848260208601611b30565b91505092915050565b600073ffffffffffffffffffffffffffffffffffffffff82169050919050565b6000611bcb82611ba0565b9050919050565b611bdb81611bc0565b8114611be657600080fd5b50565b600081359050611bf881611bd2565b92915050565b60008060408385031215611c1557611c14611a50565b5b600083013567ffffffffffffffff811115611c3357611c32611a55565b5b611c3f85828601611b72565b9250506020611c5085828601611be9565b9150509250929050565b600060208284031215611c7057611c6f611a50565b5b6000611c7e84828501611be9565b91505092915050565b60008115159050919050565b611c9c81611c87565b82525050565b6000602082019050611cb76000830184611c93565b92915050565b611cc681611a12565b8114611cd157600080fd5b50565b600081359050611ce381611cbd565b92915050565b600060208284031215611cff57611cfe611a50565b5b6000611d0d84828501611cd4565b91505092915050565b611d1f81611a12565b82525050565b600081519050919050565b600082825260208201905092915050565b60005b83811015611d5f578082015181840152602081019050611d44565b60008484015250505050565b6000611d7682611d25565b611d808185611d30565b9350611d90818560208601611d41565b611d9981611a64565b840191505092915050565b611dad81611c87565b82525050565b611dbc81611bc0565b82525050565b600060c083016000830151611dda6000860182611d16565b5060208301518482036020860152611df28282611d6b565b91505060408301518482036040860152611e0c8282611d6b565b9150506060830151611e216060860182611da4565b5060808301518482036080860152611e398282611d6b565b91505060a0830151611e4e60a0860182611db3565b508091505092915050565b60006020820190508181036000830152611e738184611dc2565b905092915050565b60008060008060808587031215611e9557611e94611a50565b5b6000611ea387828801611cd4565b945050602085013567ffffffffffffffff811115611ec457611ec3611a55565b5b611ed087828801611b72565b935050604085013567ffffffffffffffff811115611ef157611ef0611a55565b5b611efd87828801611b72565b925050606085013567ffffffffffffffff811115611f1e57611f1d611a55565b5b611f2a87828801611b72565b91505092959194509250565b600080600060608486031215611f4f57611f4e611a50565b5b600084013567ffffffffffffffff811115611f6d57611f6c611a55565b5b611f7986828701611b72565b935050602084013567ffffffffffffffff811115611f9a57611f99611a55565b5b611fa686828701611b72565b925050604084013567ffffffffffffffff811115611fc757611fc6611a55565b5b611fd386828701611b72565b9150509250925092565b60008060408385031215611ff457611ff3611a50565b5b600061200285828601611cd4565b925050602061201385828601611be9565b9150509250929050565b600081519050919050565b600082825260208201905092915050565b6000819050602082019050919050565b600060c0830160008301516120616000860182611d16565b50602083015184820360208601526120798282611d6b565b915050604083015184820360408601526120938282611d6b565b91505060608301516120a86060860182611da4565b50608083015184820360808601526120c08282611d6b565b91505060a08301516120d560a0860182611db3565b508091505092915050565b60006120ec8383612049565b905092915050565b6000602082019050919050565b600061210c8261201d565b6121168185612028565b93508360208202850161212885612039565b8060005b85811015612164578484038952815161214585826120e0565b9450612150836120f4565b925060208a0199505060018101905061212c565b50829750879550505050505092915050565b600060208201905081810360008301526121908184612101565b905092915050565b6121a181611c87565b81146121ac57600080fd5b50565b6000813590506121be81612198565b92915050565b600080604083850312156121db576121da611a50565b5b60006121e985828601611cd4565b92505060206121fa858286016121af565b9150509250929050565b600082825260208201905092915050565b600061222082611d25565b61222a8185612204565b935061223a818560208601611d41565b61224381611a64565b840191505092915050565b61225781611bc0565b82525050565b600060c0820190506122726000830189611a1c565b81810360208301526122848188612215565b905081810360408301526122988187612215565b90506122a76060830186611c93565b81810360808301526122b98185612215565b90506122c860a083018461224e565b979650505050505050565b600081519050919050565b600082825260208201905092915050565b6000819050602082019050919050565b600061230b8383611d16565b60208301905092915050565b6000602082019050919050565b600061232f826122d3565b61233981856122de565b9350612344836122ef565b8060005b8381101561237557815161235c88826122ff565b975061236783612317565b925050600181019050612348565b5085935050505092915050565b6000602082019050818103600083015261239c8184612324565b905092915050565b600060408201905081810360008301526123be8185612215565b90506123cd602083018461224e565b9392505050565b7f5573657220616c726561647920726567697374657265642e0000000000000000600082015250565b600061240a601883612204565b9150612415826123d4565b602082019050919050565b60006020820190508181036000830152612439816123fd565b9050919050565b7f4e487b7100000000000000000000000000000000000000000000000000000000600052602260045260246000fd5b6000600282049050600182168061248757607f821691505b60208210810361249a57612499612440565b5b50919050565b7f4e6f7420617574686f72697a656420746f20656469742074686973207461736b60008201527f2e00000000000000000000000000000000000000000000000000000000000000602082015250565b60006124fc602183612204565b9150612507826124a0565b604082019050919050565b6000602082019050818103600083015261252b816124ef565b9050919050565b60008190508160005260206000209050919050565b60006020601f8301049050919050565b60008160020a8302905092915050565b6000600883026125977fffffffffffffffffffffffffffffffffffffffffffffffffffffffffffffffff82612557565b6125a18683612557565b95508019841693508086168417925050509392505050565b6000819050919050565b60006125de6125d96125d484611a12565b6125b9565b611a12565b9050919050565b6000819050919050565b6125f8836125c3565b61260c612604826125e5565b848454612567565b825550505050565b600090565b612621612614565b61262c8184846125ef565b505050565b5b8181101561265057612645600082612619565b600181019050612632565b5050565b601f8211156126955761266681612532565b61266f84612547565b8101602085101561267e578190505b61269261268a85612547565b830182612631565b50505b505050565b60008160020a8304905092915050565b60006126bb6000198460080261269a565b1980831691505092915050565b60006126d483836126aa565b9150826002028217905092915050565b6126ed82611d25565b67ffffffffffffffff81111561270657612705611a75565b5b612710825461246f565b61271b828285612654565b600060209050601f83116001811461274e576000841561273c578287015190505b61274685826126c8565b8655506127ae565b601f19841661275c86612532565b60005b828110156127845784890151825560018201915060208501945060208101905061275f565b868310156127a1578489015161279d601f8916826126aa565b8355505b6001600288020188555050505b505050505050565b600060c0820190506127cb6000830189611a1c565b81810360208301526127dd8188612215565b905081810360408301526127f18187612215565b905081810360608301526128058186612215565b90506128146080830185611c93565b61282160a083018461224e565b979650505050505050565b7f55736572206e6f7420726567697374657265642e000000000000000000000000600082015250565b6000612862601483612204565b915061286d8261282c565b602082019050919050565b6000602082019050818103600083015261289181612855565b9050919050565b7f4e487b7100000000000000000000000000000000000000000000000000000000600052601160045260246000fd5b60006128d282611a12565b91507fffffffffffffffffffffffffffffffffffffffffffffffffffffffffffffffff820361290457612903612898565b5b600182019050919050565b60006060820190506129246000830186611a1c565b81810360208301526129368185612215565b9050612945604083018461224e565b949350505050565b7f496e76616c6964207461736b2049442e00000000000000000000000000000000600082015250565b6000612983601083612204565b915061298e8261294d565b602082019050919050565b600060208201905081810360008301526129b281612976565b9050919050565b7f4e6577206f776e6572206973206e6f7420726567697374657265642e00000000600082015250565b60006129ef601c83612204565b91506129fa826129b9565b602082019050919050565b60006020820190508181036000830152612a1e816129e2565b9050919050565b7f4e487b7100000000000000000000000000000000000000000000000000000000600052603260045260246000fd5b7f596f7520646f206e6f74206f776e2074686973207461736b2e00000000000000600082015250565b6000612a8a601983612204565b9150612a9582612a54565b602082019050919050565b60006020820190508181036000830152612ab981612a7d565b9050919050565b6000612acb82611a12565b9150612ad683611a12565b9250828203905081811115612aee57612aed612898565b5b92915050565b7f4e487b7100000000000000000000000000000000000000000000000000000000600052603160045260246000fd5b6000606082019050612b386000830186611a1c565b612b456020830185611c93565b612b52604083018461224e565b949350505050565b6000604082019050612b6f6000830185611a1c565b612b7c602083018461224e565b9392505050565b6000612b8e82611a12565b9150612b9983611a12565b9250828201905080821115612bb157612bb0612898565b5b92915050565b7f5461736b206e6f7420666f756e642e0000000000000000000000000000000000600082015250565b6000612bed600f83612204565b9150612bf882612bb7565b602082019050919050565b60006020820190508181036000830152612c1c81612be0565b905091905056fea264697066735822122079047ed7b08009282e6d691d8383f70d9d0c5f592ed01d38ec7c6c4bfefecd6d64736f6c63430008150033",
  "immutableReferences": {},
  "source": "// SPDX-License-Identifier: MIT\npragma solidity ^0.8.0;\n\ncontract UserTasks {\n    struct Task {\n        uint256 id;\n        string name;\n        string hour;\n        bool status;\n        string day;\n        address owner;\n    }\n    struct User {\n        string userName;\n        address userAddress;\n        uint256[] taskIds;\n    }\n    uint256 private _count;\n    function increment(uint256 countValue) public {\n        _count += countValue;\n    }\n\n    function count() public view returns (uint256) {\n        return _count;\n    }\n    uint256 private _taskIdCounter;\n    Task[] public tasks;\n    mapping(address => User) public users;\n    mapping(address => bool) public isUserRegistered;\n\n    event UserRegistered(string userName, address userAddress);\n    event TaskAdded(uint256 taskId, string name, address owner);\n    event TaskUpdatedStatus(uint256 taskId, bool status, address owner);\n    event TaskDeleted(uint256 taskId, address owner);\n    event TaskUpdated(uint256 taskId, string name, string hour, string day, bool status, address owner);\n\n    function registerUser(string memory userName, address userAddress) public {\n        require(!isUserRegistered[userAddress], \"User already registered.\");\n\n        isUserRegistered[userAddress] = true;\n\n        emit UserRegistered(userName, userAddress);\n    }\n\n\n    function addTask(\n        string memory name,\n        string memory hour,\n        string memory day\n    ) public {\n        require(isUserRegistered[msg.sender], \"User not registered.\");\n\n        uint256 newTaskId = _taskIdCounter++; //   ID\n        tasks.push(Task(newTaskId, name, hour, false, day, msg.sender));\n        users[msg.sender].taskIds.push(newTaskId);\n\n        emit TaskAdded(newTaskId, name, msg.sender);\n    }\n\n    function editTask(\n        uint256 taskId,\n        string memory newName,\n        string memory newHour,\n        string memory newDay\n    ) public {\n        Task storage task = _getTaskById(taskId);\n        require(task.owner == msg.sender, \"Not authorized to edit this task.\");\n\n        task.name = newName;\n        task.hour = newHour;\n        task.day = newDay;\n\n        emit TaskUpdated(taskId, newName, newHour, newDay, task.status, msg.sender);\n    }\n\n    function getUserTasks(address userAddress) public view returns (uint256[] memory) {\n        require(isUserRegistered[userAddress], \"User not registered.\");\n        return users[userAddress].taskIds;\n    }\n\n\n\n    function updateTaskStatus(uint256 taskId, bool status) public {\n        Task storage task = _getTaskById(taskId);\n        task.status = status;\n\n        emit TaskUpdatedStatus(taskId, status, msg.sender);\n    }\n\n    function deleteTask(uint256 taskId) public {\n        Task storage task = _getTaskById(taskId);\n\n        uint256[] storage userTasks = users[msg.sender].taskIds;\n        for (uint256 i = 0; i < userTasks.length; i++) {\n            if (userTasks[i] == taskId) {\n                userTasks[i] = userTasks[userTasks.length - 1];\n                userTasks.pop();\n                break;\n            }\n        }\n\n        delete tasks[taskId];\n\n        emit TaskDeleted(taskId, msg.sender);\n    }\n\n    function getTask(uint256 taskId) public view returns (Task memory) {\n        return _getTaskById(taskId);\n    }\n\n    function _getTaskById(uint256 taskId) private view returns (Task storage) {\n        for (uint256 i = 0; i < tasks.length; i++) {\n            if (tasks[i].id == taskId) {\n                return tasks[i];\n            }\n        }\n        revert(\"Task not found.\");\n    }\n\n    function fetchUserTasks(address userAddress) public view returns (Task[] memory) {\n        require(isUserRegistered[userAddress], \"User not registered.\");\n\n        uint256[] memory taskIds = users[userAddress].taskIds;\n        Task[] memory userTasks = new Task[](taskIds.length);\n\n        for (uint256 i = 0; i < taskIds.length; i++) {\n            userTasks[i] = _getTaskById(taskIds[i]);\n        }\n\n        return userTasks;\n    }\n\n    function assignTask(uint256 taskId, address newOwner) public {\n        require(taskId < tasks.length, \"Invalid task ID.\");\n        require(isUserRegistered[newOwner], \"New owner is not registered.\");\n\n        Task storage task = tasks[taskId];\n        require(task.owner == msg.sender, \"You do not own this task.\");\n\n        address oldOwner = task.owner;\n        task.owner = newOwner;\n\n        uint256[] storage oldOwnerTasks = users[oldOwner].taskIds;\n        for (uint256 i = 0; i < oldOwnerTasks.length; i++) {\n            if (oldOwnerTasks[i] == taskId) {\n                oldOwnerTasks[i] = oldOwnerTasks[oldOwnerTasks.length - 1];\n                oldOwnerTasks.pop();\n                break;\n            }\n        }\n\n        users[newOwner].taskIds.push(taskId);\n\n        emit TaskUpdatedStatus(taskId, task.status, newOwner);\n    }\n\n}",
  "sourcePath": "C:\\Users\\PC\\Desktop\\kp\\flutter_planning_app\\contracts\\UserTasks.sol",
  "compiler": {
    "name": "solc",
    "version": "0.8.21+commit.d9974bed.Emscripten.clang"
  },
  "schemaVersion": "3.4.16",
  "updatedAt": "2024-11-21T14:51:20.850Z",
  "networkType": "ethereum",
  "devdoc": {
    "kind": "dev",
    "methods": {},
    "version": 1
  },
  "userdoc": {
    "kind": "user",
    "methods": {},
    "version": 1
  }
}